:1000000035C0000058C0000056C0000054C00000B9
:1000100052C0000050C000004EC000004CC00000A4
:100020004AC0000048C0000046C0000044C00000B4
:1000300042C0000040C000003EC000003CC00000C4
:100040003AC0000038C0000036C0000034C00000D4
:1000500032C0000030C000002EC000002CC00000E4
:100060002AC0000028C00000B501C10111241FBE34
:10007000CFEFD8E0DEBFCDBF11E0A0E0B1E0E2E01D
:10008000F4E002C005900D92A230B107D9F711E05B
:10009000A2E0B1E001C01D92AC30B107E1F710E081
:1000A000CAE6D0E003C02297FE019BD1C836D10733
:1000B000D1F702D19AC1A4CF0F931F93CF93DF93AF
:1000C000CDB7DEB72E970FB6F894DEBF0FBECDBF0B
:1000D0009A8389837C836B835E834D8338872F83E8
:1000E0001A87098789819A812B813C81FC013183A0
:1000F000208389819A812D813E81FC013383228373
:1001000089819A812F813885FC01358324838981F7
:100110009A8129853A85FC013783268304EC10E017
:1001200089819A81FC0180819181AA2797FDA09500
:10013000BA2F880F991FAA1FBB1F880F991FAA1FCC
:10014000BB1F880F991FAA1FBB1F880F991FAA1FCB
:10015000BB1F9C01AD0180E094E2A4EFB0E0BC01C4
:10016000CD011BD1DA01C9010197F8019183808388
:1001700081EC90E028E1FC01208382EC90E026E015
:10018000FC0120832E960FB6F894DEBF0FBECDBFC4
:10019000DF91CF911F910F910895CF93DF9300D0FE
:1001A000CDB7DEB79A8389830F900F90DF91CF91FF
:1001B0000895CF93DF9300D01F92CDB7DEB79A8317
:1001C00089836B83000080EC90E0FC018081882FA4
:1001D00090E08072992721E0009709F020E0222327
:1001E00091F786EC90E02B81FC0120830F900F901B
:1001F0000F90DF91CF910895CF93DF93CDB7DEB706
:1002000084E290E024E230E0F901308120910201A3
:10021000232B322F2091030120952323FC012083DF
:10022000DF91CF910895CF93DF93CDB7DEB783E20F
:1002300090E0FC01908180910301982381E0992353
:1002400009F480E0DF91CF910895CF93DF93CDB78C
:10025000DEB785E290E025E230E0F90130812091BF
:100260000201232BFC012083DF91CF910895CF93CE
:10027000DF93CDB7DEB785E290E025E230E0F9010B
:100280002081322F2091020120952323FC0120831D
:10029000DF91CF910895CF93DF93CDB7DEB761E6BD
:1002A00084E091E086DFBFDF882311F0CEDF01C05C
:1002B000DEDFDF91CF910895CF93DF93CDB7DEB727
:1002C0009BDFE9DFFECF0F931F93CF93DF9300D027
:1002D00000D0CDB7DEB79A8389837C836B83898115
:1002E0009A818130910559F58B819C818F3F2FEF49
:1002F000920729F580910001282F30E081E090E0FD
:1003000002C0880F991F2A95E2F78093020180911D
:100310000101282F30E081E090E002C0880F991F92
:100320002A95E2F78093030101E010E020E030E03D
:1003300048E050E060E07BE484E091E0BDDE89814C
:100340009A81009749F48B819C818F3F2FEF920710
:1003500019F484E091E021DF0F900F900F900F903F
:10036000DF91CF911F910F910895CF93DF93CDB778
:10037000DEB76FEF7FEF81E090E0A5DFDF91CF91F7
:100380000895CF93DF93CDB7DEB76FEF7FEF80E0B7
:1003900090E099DFDF91CF910895A1E21A2EAA1B78
:1003A000BB1BFD010DC0AA1FBB1FEE1FFF1FA21725
:1003B000B307E407F50720F0A21BB30BE40BF50B22
:1003C000661F771F881F991F1A9469F760957095AB
:1003D000809590959B01AC01BD01CF010895EE0F72
:1003E000FF1F0590F491E02D099410E0CAE6D0E0DB
:1003F00003C0FE01F6DF2296CC36D107D1F7F89480
:02040000FFCF2C
:020402000304F1
:00000001FF
