:1000000034C0000057C0000055C0000053C00000BD
:1000100051C000004FC000004DC000004BC00000A8
:1000200049C0000047C0000045C0000043C00000B8
:1000300041C000003FC000003DC000003BC00000C8
:1000400039C0000037C0000035C0000033C00000D8
:1000500031C000002FC000002DC000002BC00000E8
:1000600029C0000027C00000F50011241FBECFEFFB
:10007000D8E0DEBFCDBF11E0A0E0B1E0E2E1F2E008
:1000800002C005900D92A230B107D9F711E0A2E0AD
:10009000B1E001C01D92A430B107E1F710E0CAE65B
:1000A000D0E003C02297FE01AED0C836D107D1F709
:1000B0005ED0ADC0A5CFCF93DF93CDB7DEB784E2DE
:1000C00090E024E230E0F901308120910201232BFD
:1000D000322F2091030120952323FC012083DF91FF
:1000E000CF910895CF93DF93CDB7DEB783E290E051
:1000F000FC01908180910301982381E0992309F408
:1001000080E0DF91CF910895CF93DF93CDB7DEB735
:1001100085E290E025E230E0F90130812091020192
:10012000232BFC012083DF91CF910895CF93DF93A0
:10013000CDB7DEB785E290E025E230E0F90120811D
:10014000322F2091020120952323FC012083DF918F
:10015000CF910895CF93DF93CDB7DEB7C3DF882368
:1001600011F0D2DF01C0E2DFDF91CF910895CF938C
:10017000DF93CDB7DEB79FDFEDDFFECFCF93DF9309
:1001800000D000D0CDB7DEB79A8389837C836B83A0
:1001900089819A818130910509F58B819C818F3FFE
:1001A0002FEF9207D9F480910001282F30E081E0F1
:1001B00090E002C0880F991F2A95E2F78093020110
:1001C00080910101282F30E081E090E0022E02C0F2
:1001D000880F991F0A94E2F7809303010F900F9004
:1001E0000F900F90DF91CF910895CF93DF93CDB70C
:1001F000DEB76FEF7FEF81E090E0C0DFDF91CF915E
:100200000895EE0FFF1F0590F491E02D0994F894E6
:02021000FFCF1E
:020212000304E3
:00000001FF
